{
  "contractName": "Balance",
  "abi": [
    {
      "constant": true,
      "inputs": [],
      "name": "amount",
      "outputs": [
        {
          "name": "",
          "type": "uint256"
        }
      ],
      "payable": false,
      "stateMutability": "view",
      "type": "function"
    },
    {
      "constant": true,
      "inputs": [],
      "name": "member",
      "outputs": [
        {
          "name": "",
          "type": "address"
        }
      ],
      "payable": false,
      "stateMutability": "view",
      "type": "function"
    },
    {
      "constant": false,
      "inputs": [],
      "name": "getBalance",
      "outputs": [
        {
          "name": "",
          "type": "uint256"
        }
      ],
      "payable": false,
      "stateMutability": "nonpayable",
      "type": "function"
    },
    {
      "constant": false,
      "inputs": [],
      "name": "setMember",
      "outputs": [],
      "payable": false,
      "stateMutability": "nonpayable",
      "type": "function"
    }
  ],
  "bytecode": "0x608060405234801561001057600080fd5b506101d7806100206000396000f300608060405260043610610062576000357c0100000000000000000000000000000000000000000000000000000000900463ffffffff168063031e48d01461006757806312065fe01461007e578063aa8c217c146100a9578063e3f6b544146100d4575b600080fd5b34801561007357600080fd5b5061007c61012b565b005b34801561008a57600080fd5b5061009361016e565b6040518082815260200191505060405180910390f35b3480156100b557600080fd5b506100be61017f565b6040518082815260200191505060405180910390f35b3480156100e057600080fd5b506100e9610185565b604051808273ffffffffffffffffffffffffffffffffffffffff1673ffffffffffffffffffffffffffffffffffffffff16815260200191505060405180910390f35b33600160006101000a81548173ffffffffffffffffffffffffffffffffffffffff021916908373ffffffffffffffffffffffffffffffffffffffff160217905550565b600060c760008190555060c9905090565b60005481565b600160009054906101000a900473ffffffffffffffffffffffffffffffffffffffff16815600a165627a7a72305820bd1f3d44997d056716854df74568054593904f5db84a34c18b1d27aa2893b9fb0029",
  "source": "pragma solidity ^0.4.17;\n\ncontract Balance {\n    uint public amount;\n    address public member;\n    \n    // Get balance\n    function getBalance() public returns (uint) {\n      amount = 199;\n      return 201;\n    }\n    \n    // Set member address\n    function setMember() public {\n      member = msg.sender;\n    }\n}",
  "sourcePath": "/Users/shuangly/tutorials/team/dot/integration/contracts/Balance.sol",
  "compiler": {
    "name": "solc",
    "version": "0.4.24+commit.e67f0147.Emscripten.clang"
  },
  "schemaVersion": "2.0.1",
  "updatedAt": "2018-08-05T17:01:07.026Z"
}