{
  "contractName": "RandomMembers",
  "abi": [
    {
      "constant": true,
      "inputs": [],
      "name": "counter",
      "outputs": [
        {
          "name": "",
          "type": "uint256"
        }
      ],
      "payable": false,
      "stateMutability": "view",
      "type": "function"
    },
    {
      "constant": true,
      "inputs": [
        {
          "name": "",
          "type": "address"
        }
      ],
      "name": "memberInfo",
      "outputs": [
        {
          "name": "addr",
          "type": "address"
        },
        {
          "name": "name",
          "type": "string"
        },
        {
          "name": "isBoardMember",
          "type": "bool"
        }
      ],
      "payable": false,
      "stateMutability": "view",
      "type": "function"
    },
    {
      "inputs": [],
      "payable": false,
      "stateMutability": "nonpayable",
      "type": "constructor"
    },
    {
      "constant": false,
      "inputs": [
        {
          "name": "addr",
          "type": "address"
        }
      ],
      "name": "getMemberInfo",
      "outputs": [
        {
          "name": "",
          "type": "address"
        },
        {
          "name": "",
          "type": "string"
        },
        {
          "name": "",
          "type": "bool"
        }
      ],
      "payable": false,
      "stateMutability": "nonpayable",
      "type": "function"
    }
  ],
  "bytecode": "0x60806040526000805560c0604051908101604052806040805190810160405280600a81526020017f536875616e676c696e670000000000000000000000000000000000000000000081525081526020016040805190810160405280600581526020017f48656e727900000000000000000000000000000000000000000000000000000081525081526020016040805190810160405280600581526020017f536861727500000000000000000000000000000000000000000000000000000081525081526020016040805190810160405280600581526020017f4a6573737900000000000000000000000000000000000000000000000000000081525081526020016040805190810160405280600381526020017f457665000000000000000000000000000000000000000000000000000000000081525081526020016040805190810160405280600481526020017f4a696e6700000000000000000000000000000000000000000000000000000000815250815250600190600662000186929190620001fa565b5060c060405190810160405280600015151515815260200160001515151581526020016001151515158152602001600115151515815260200160001515151581526020016000151515158152506002906006620001e592919062000261565b50348015620001f357600080fd5b506200046d565b8280548282559060005260206000209081019282156200024e579160200282015b828111156200024d5782518290805190602001906200023c9291906200030e565b50916020019190600101906200021b565b5b5090506200025d919062000395565b5090565b82805482825590600052602060002090601f01602090048101928215620002fb5791602002820160005b83821115620002ca57835183826101000a81548160ff02191690831515021790555092602001926001016020816000010492830192600103026200028b565b8015620002f95782816101000a81549060ff0219169055600101602081600001049283019260010302620002ca565b505b5090506200030a9190620003c6565b5090565b828054600181600116156101000203166002900490600052602060002090601f016020900481019282601f106200035157805160ff191683800117855562000382565b8280016001018555821562000382579182015b828111156200038157825182559160200191906001019062000364565b5b509050620003919190620003f9565b5090565b620003c391905b80821115620003bf5760008181620003b5919062000421565b506001016200039c565b5090565b90565b620003f691905b80821115620003f257600081816101000a81549060ff021916905550600101620003cd565b5090565b90565b6200041e91905b808211156200041a57600081600090555060010162000400565b5090565b90565b50805460018160011615610100020316600290046000825580601f106200044957506200046a565b601f016020900490600052602060002090810190620004699190620003f9565b5b50565b6107cd806200047d6000396000f300608060405260043610610057576000357c0100000000000000000000000000000000000000000000000000000000900463ffffffff1680635f1231ea1461005c57806361bc221a14610156578063a313c37114610181575b600080fd5b34801561006857600080fd5b5061009d600480360381019080803573ffffffffffffffffffffffffffffffffffffffff16906020019092919050505061027b565b604051808473ffffffffffffffffffffffffffffffffffffffff1673ffffffffffffffffffffffffffffffffffffffff1681526020018060200183151515158152602001828103825284818151815260200191508051906020019080838360005b838110156101195780820151818401526020810190506100fe565b50505050905090810190601f1680156101465780820380516001836020036101000a031916815260200191505b5094505050505060405180910390f35b34801561016257600080fd5b5061016b610600565b6040518082815260200191505060405180910390f35b34801561018d57600080fd5b506101c2600480360381019080803573ffffffffffffffffffffffffffffffffffffffff169060200190929190505050610606565b604051808473ffffffffffffffffffffffffffffffffffffffff1673ffffffffffffffffffffffffffffffffffffffff1681526020018060200183151515158152602001828103825284818151815260200191508051906020019080838360005b8381101561023e578082015181840152602081019050610223565b50505050905090810190601f16801561026b5780820380516001836020036101000a031916815260200191505b5094505050505060405180910390f35b600060606000806000808673ffffffffffffffffffffffffffffffffffffffff16600360008973ffffffffffffffffffffffffffffffffffffffff1673ffffffffffffffffffffffffffffffffffffffff16815260200190815260200160002060000160009054906101000a900473ffffffffffffffffffffffffffffffffffffffff1673ffffffffffffffffffffffffffffffffffffffff1614151561045f57600160005481548110151561032d57fe5b906000526020600020019250600260005481548110151561034a57fe5b90600052602060002090602091828204019190069054906101000a900460ff169150600360008873ffffffffffffffffffffffffffffffffffffffff1673ffffffffffffffffffffffffffffffffffffffff1681526020019081526020016000209050868160000160006101000a81548173ffffffffffffffffffffffffffffffffffffffff021916908373ffffffffffffffffffffffffffffffffffffffff160217905550828160010190805460018160011615610100020316600290046104149291906106f5565b50818160020160006101000a81548160ff02191690831515021790555060016000540160008190555060018054905060005410151561045e57600180549050600054036000819055505b5b600360008873ffffffffffffffffffffffffffffffffffffffff1673ffffffffffffffffffffffffffffffffffffffff16815260200190815260200160002060000160009054906101000a900473ffffffffffffffffffffffffffffffffffffffff16600360008973ffffffffffffffffffffffffffffffffffffffff1673ffffffffffffffffffffffffffffffffffffffff168152602001908152602001600020600101600360008a73ffffffffffffffffffffffffffffffffffffffff1673ffffffffffffffffffffffffffffffffffffffff16815260200190815260200160002060020160009054906101000a900460ff16818054600181600116156101000203166002900480601f0160208091040260200160405190810160405280929190818152602001828054600181600116156101000203166002900480156105e95780601f106105be576101008083540402835291602001916105e9565b820191906000526020600020905b8154815290600101906020018083116105cc57829003601f168201915b505050505091509550955095505050509193909250565b60005481565b60036020528060005260406000206000915090508060000160009054906101000a900473ffffffffffffffffffffffffffffffffffffffff1690806001018054600181600116156101000203166002900480601f0160208091040260200160405190810160405280929190818152602001828054600181600116156101000203166002900480156106d85780601f106106ad576101008083540402835291602001916106d8565b820191906000526020600020905b8154815290600101906020018083116106bb57829003601f168201915b5050505050908060020160009054906101000a900460ff16905083565b828054600181600116156101000203166002900490600052602060002090601f016020900481019282601f1061072e578054855561076b565b8280016001018555821561076b57600052602060002091601f016020900482015b8281111561076a57825482559160010191906001019061074f565b5b509050610778919061077c565b5090565b61079e91905b8082111561079a576000816000905550600101610782565b5090565b905600a165627a7a7230582023f6d9bd7ba34775966419dd02cacf35c767b64f4b1e7528c4260fd6e79dbab60029",
  "source": "pragma solidity ^0.4.23;\n\nimport \"./DotToken.sol\";\n\n\ncontract RandomMembers {\n    struct Member {\n\t\taddress addr;\n\t\tstring name;\n\t\tbool isBoardMember;\n\t}\n\t\n\tuint public counter = 0;\n\tstring[] names = [\"Shuangling\", \"Henry\", \"Sharu\", \"Jessy\", \"Eve\", \"Jing\"];\n\tbool[] isBoards = [false, false, true, true, false, false];\n\n    mapping(address => Member) public memberInfo;\n    \n    constructor() public {\n    }\n    \n    function getMemberInfo(address addr) public returns (address, string, bool) {\n        if (memberInfo[addr].addr != addr){\n            string storage name = names[counter];\n            bool isBoard = isBoards[counter];\n            Member storage member = memberInfo[addr];\n            member.addr = addr;\n            member.name = name;\n            member.isBoardMember = isBoard;\n            counter = counter + 1;\n            if (counter >= names.length){\n                counter = counter - names.length;\n            }\n        }\n        return (memberInfo[addr].addr, memberInfo[addr].name, memberInfo[addr].isBoardMember);\n    }\n} ",
  "sourcePath": "/Users/shuangly/tutorials/integration/contracts/RandomMembers.sol",
  "compiler": {
    "name": "solc",
    "version": "0.4.24+commit.e67f0147.Emscripten.clang"
  },
  "schemaVersion": "2.0.1",
  "updatedAt": "2018-08-05T10:02:01.702Z"
}